:020000040800F2
:10500000286801209D5100083D5E0008815D000870
:10501000395E0008A35A0008B963000800000000C8
:10502000000000000000000000000000B96200085D
:10503000295B0008000000007F5E0008C7620008CE
:10504000B7510008B7510008B7510008B751000820
:10505000B7510008B7510008B7510008B751000810
:10506000B75100082D5B0008E15B0008A95A000851
:10507000B7510008B7510008C55A0008B7510008D9
:10508000B7510008B7510008B7510008B7510008E0
:10509000B7510008B7510008B7510008995C0008E3
:1050A000B7510008B7510008B7510008B7510008C0
:1050B000B7510008B7510008B7510008B7510008B0
:1050C000B7510008B7510008B7510008B7510008A0
:1050D000B751000861630008B7510008B7510008D4
:1050E000B7510008B7510008B7510008B751000880
:1050F000B7510008B7510008B7510008B751000870
:10510000B7510008B751000839630008B7510008CB
:10511000B7510008B7510008B7510008B75100084F
:10512000F95A0008B7510008B7510008B7510008F4
:10513000B7510008B7510008B7510008B75100082F
:10514000000000000000000000000000000000005F
:10515000B7510008B7510008B7510008B75100080F
:10516000B7510008B7510008B7510008B7510008FF
:10517000B7510008B7510008B7510008B7510008EF
:10518000B7510008DFF810D000F040FC004800479D
:1051900085170208AFF30080286801200648804781
:1051A00006480047FEE7FEE7FEE7FEE7FEE7FEE70C
:1051B000FEE7FEE7FEE7FEE7C9620008855100084A
:1051C0002DE9F05F0546002092469B46884606463C
:1051D000814640241BE0284641464746224600F0CF
:1051E000FBFA53465A46C01A914110D3114618464D
:1051F000224600F0E2FA2D1A67EB01084F462246DC
:105200000120002100F0D9FA17EB00094E41201EC1
:10521000A4F10104DFDC484631462A464346BDE896
:10522000F09F10B5431A934209D28318881803E0FF
:1052300010F8011D03F8011D521EF9D210BD40EAFD
:1052400001039B0703D009E008C9121F08C0042A04
:10525000FAD203E011F8013B00F8013B521EF9D2EB
:1052600010BDD2B201E000F8012B491EFBD27047FD
:105270000022F6E710B513460A4604461946FFF722
:10528000F0FF204610BD30B505462A460B4612F801
:10529000010B13F8014B08B1A042F8D01CB1002853
:1052A00002D06D1CF1E7284630BD10B5044604E07D
:1052B0000B7800F8013B03B1491C521EF8D220467E
:1052C00010BDCAB2401E10F8011F8A4202D0002948
:1052D000F9D100207047421C10F8011B0029FBD1B6
:1052E000801A704710B5002200E0521C835C8C5C71
:1052F000A34201D1002BF8D1D8B2E1B2401A10BDBF
:1053000010B5044600E0401C0378002BFBD100E000
:10531000401C521E04D311F8013B0370002BF7D13F
:1053200000210170204610BD034611F8012B00F842
:10533000012B002AF9D1184670472DE9F05F9346FA
:105340000F4680460446002601F02AF9D0F8009066
:10535000824614F8015B2DB100F060FA0068405DF0
:10536000C007F6D12B2D02D02D2D1AD0641E00219E
:10537000CAF800105A463946204600F053FA014652
:1053800027B13868A04201D1C7F80080DAF80000E0
:10539000022809D0CAF80090700505D54842BDE83A
:1053A000F09F46F48066E2E70846F8E72DE9FE4FF5
:1053B000804681EA0300C00F0C46009021F00041B6
:1053C00023F00045B8EB0200A94105D24046214632
:1053D00090461C460B46024623F00040104347D03F
:1053E000270DC7F30A00C3F30A510290401A019037
:1053F00040286BDAC3F3130040F4801B00989246F8
:1054000020B10023D2EB030A63EB0B0B0198594642
:10541000C0F14002504600F0D0F906460D46504615
:105420005946019A00F0E8F910EB080061410024A8
:1054300087EA115284EAE7731A4340D0009A62B3B4
:10544000019A012A4FEA075215DC001B61EB0201A9
:105450004FF0004202EA0752CDE90042001C41F53C
:10546000801132462B4600F03BFA03B0BDE8F08FC6
:1054700040462146F9E7001B61EB0201001C41F5A3
:10548000801300185B412018A2F5001747EB0301B9
:1054900040EAD570B6196D4111E06D084FEA360645
:1054A00045EAC0754FEA0752001B61EB0201001C80
:1054B00041F5801149084FEA300000195141324648
:1054C0002B4603B0BDE8F04F00F0FBB90098012275
:1054D00040000023D0EB020263EBE073009821460A
:1054E0004FEAE074B8EB000061EB0401E9E783F0F8
:1054F00000435BE781F0004158E72DE9FE4F81EA68
:10550000030404F0004421F0004100944FF0000B2C
:1055100023F0004350EA01045ED052EA03045BD05A
:10552000C3F30A54C1F30A552C44A4F2F334019492
:10553000A0FB0254C1F3130141F48011C3F3130320
:1055400043F4801301FB024400FB034E840A970AD4
:1055500044EA815447EA8357A4FB076802958D0A01
:1055600005FB07854FEA932C04FB0C542705029D8D
:105570004FEA065847EA1637B5EB08056EEB070CFD
:10558000870E920E47EA811742EA8312A7FB0201B7
:10559000B6EB0B0164EB00042B0D43EA0C335E18F1
:1055A00044EB1C50DA465146E7FB0201C5F31304F5
:1055B0004FEA0B3343EA14534FEA0432019C43EAA7
:1055C0000603A4F10C040294009CCDE900B400F0A1
:1055D00087F903B0BDE8F08F00200146F9E72DE917
:1055E000F04D81EA030404F0004B21F0004514461D
:1055F0004FF0000A23F0004150EA050220D054EA9F
:1056000001021DD0C5F30A570246C5F31303C1F3C7
:105610001300C1F30A5640F4801543F48013A7EB3E
:105620000608101BD64608F2FD3873EB050002D3BE
:1056300008F1010801E092185B41B8F1000F03DAAC
:1056400000200146BDE8F08D00204FF48011064691
:1056500084460EE0171B73EB050705D3121B63EBA3
:10566000050306434CEA010C49084FEA3000921842
:105670005B4150EA0107EDD152EA030012D082EA01
:10568000040083EA0501084305D0101BAB4106D294
:105690000122002306E000224FF0004302E06FF0F9
:1056A000010253101AEB06004CEB085110EB0A00F4
:1056B00041EB0B01BDE8F04D00F003B90EB5C10F91
:1056C00080EAE0700844CA07002140F233438DE8C5
:1056D0000E000A460B4600F003F903B000BD0EB5FC
:1056E00040F2334102910021CDE900110A460B46F8
:1056F00000F0F6F803B000BD70B5C1F30A5201F036
:1057000000450024C1F3130140F2FF3341F480113E
:105710009A4201DA002070BD40F233439A42A2F26D
:10572000334203DC524200F057F800E090402C4333
:10573000F1D0404270BDC1F30A5210B5C1F313015C
:1057400040F2FF3341F480119A4201DA002010BD8B
:1057500040F233439A42A2F2334203DC524200F059
:105760003BF810BD904010BD00F0004230F000400A
:105770000AD0C10D01F56071C0F3160042EA015173
:10578000C20840071143704700200146704730B5FA
:105790000B46014600202022012409E021FA02F5EF
:1057A0009D4205D303FA02F5491B04FA02F5284489
:1057B000151EA2F10102F1DC30BD202A04DB203AE3
:1057C00000FA02F1002070479140C2F1200320FA54
:1057D00003F3194390407047202A04DB203A21FA52
:1057E00002F00021704721FA02F3D040C2F12002FA
:1057F0009140084319467047202A06DBCB17203A10
:1058000041FA02F043EAE07306E041FA02F3D040C5
:10581000C2F1200291400843194670470048704782
:10582000343903082DE9F05F8246007800271546D9
:105830008B460AF10104B946302801D09DB113E02E
:1058400014F8010B0127782803D0582801D045B15E
:105850000AE00DB1102D07D10027102514F8010B17
:1058600002E0082500E00A250026B0460EE005FB10
:10587000080005FB06F1012701EB10461FFA80F82E
:10588000B6F5803F00D3B94614F8010B294600F065
:10589000CFF80028EBDABBF1000F05D00FB1641E82
:1058A00000E05446CBF80040B9F1000F06D000F0FC
:1058B00077FE02210160C81EBDE8F09F48EA06405D
:1058C000FAE710B5141E73F1000408DA401C41F128
:1058D000000192185B411A4301D120F0010010BD74
:1058E0002DE9F04D92469B4611B1B1FA81F202E0EA
:1058F000B0FA80F220329046FFF75FFF04460F4671
:1059000040EA0A0041EA0B0153465A46084313D0C5
:10591000114653EA010019D0C8F140025046FFF782
:105920005BFF05460E46504659464246FFF745FF87
:10593000084305D0012004E020463946BDE8F08D3B
:105940000020054346EAE0762C4337430A98630576
:10595000E40AA0EB08000022FD0A44EA47540A309A
:1059600002D500200146E9E7010510196941DDE98A
:10597000084500196941BDE8F04DA2E7C1F30A529C
:10598000C1F3130140F2FF3341F480119A4202DA6D
:1059900000200146704740F233439A42A2F233425C
:1059A00002DC5242FFF718BFFFF707BF30B5041EF5
:1059B00071F1000404DB4FF00044404264EB01014C
:1059C000141E73F1000405DB1C464FF000435242E5
:1059D00063EB04038B4208BF824230BD30B5041E26
:1059E00071F1000404DB4FF00044404264EB01011C
:1059F000141E73F1000405DB1C464FF000435242B5
:105A000063EB0403994208BF904230BD064C074D3A
:105A100006E0E06840F0010394E80700984710347E
:105A2000AC42F6D3FFF7B2FB803A0308A03A030872
:105A30003A2800D2303820F02002412A01D3A2F1C6
:105A40003700884201D34FF0FF30704770B58C1893
:105A500010F8015B15F0070301D110F8013B2A1182
:105A600006D110F8012B03E010F8016B01F8016B6F
:105A70005B1EF9D12B0705D40023521E0DD401F86B
:105A8000013BFAE710F8013BCB1A921C03E013F834
:105A9000015B01F8015B521EF9D5A142D8D3002069
:105AA00070BD00BFFEE7000010B5022006F0CEF981
:105AB00028B1022006F020F901200149088010BD1C
:105AC0000000002010B54FF4005006F0BFF968B197
:105AD0004FF4005006F010F90021054806F0F8F8E0
:105AE0000021044821F03FFD03F072FE10BD0000CC
:105AF000440002400038014010B5084806F00CF997
:105B000058B1064806F0F8F84FF4805104480CF0FC
:105B100041F9044800680EF0F1FE10BD02000010CB
:105B2000000C0140140200207047000010B508204E
:105B30000AF032F9002848D008200AF01DF90021A7
:105B400010200AF083F9082120480CF0D7F9B0B9E9
:105B500020211E480CF0D2F9012810D110211B4839
:105B60000CF0CCF9012802D11949087029E0184835
:105B70000078052825D106201549087021E010215C
:105B800012480CF0BBF9012814D1114800780728FD
:105B900017D11048007818B901200F49087005E0A6
:105BA0000E480088012801D10B49087000200849DF
:105BB000087006E006480078022802D10320044954
:105BC0000870012110200AF041F910BD000C0140BD
:105BD00082010020D40000200201002006010020E4
:105BE00010B510200AF0D8F8002849D010200AF08B
:105BF000C3F8002108200AF029F9102121480CF0EF
:105C00007DF9B8B920211F480CF078F9012811D18D
:105C100008211C480CF072F9012803D105201A490B
:105C2000087029E018480078012825D1022016497B
:105C3000087021E0082113480CF060F9012814D104
:105C400011480078032817D11048007818B90120AE
:105C50000F49087005E00F480088012801D10C4960
:105C6000087000200849087006E0074800780628F8
:105C700002D1072004490870012108200AF0E6F843
:105C800010BD0000000C014082010020D400002063
:105C9000010100200601002010B520200AF07CF848
:105CA000002845D020200AF067F8202129480CF070
:105CB00025F978B9642022F0BFF9202125480CF09D
:105CC0001DF988BB00202449087024480068244935
:105CD00008602DE020211F480CF010F9012827D181
:105CE000642022F0A9F920211A480CF007F90128B4
:105CF0001ED119480078B8B9012017490870184812
:105D0000006816490968081AB0F5FA7F10D81448D7
:105D1000006812490968081A322809D31148007826
:105D200018B901201049087002E000200D490870E0
:105D30004FF480700AF030F850B10C4840790128D7
:105D400002D00BA000F0B8FB4FF480700AF014F8FA
:105D500010BD0000000C01400001002010010020D7
:105D6000340000200501002003010020240400204D
:105D7000696E7420697320636F6D650D0A00000001
:105D800000BFFEE77FB504460D460A2000F095FAF5
:105D9000002003904FF6FF70012103AA2B46CDE9A6
:105DA00000210290224603480CF016FC9DF80C00DE
:105DB00004B070BD3C10002037B584B004460D46D9
:105DC0000A2000F07AFA4FF6FF70012106AA2B464E
:105DD000CDE900210290224602480CF005FD07B0F3
:105DE00030BD00003C10002080ED000AC0ED010A2B
:105DF000F7EE001AC0ED031A80ED021A70472DE984
:105E0000F04107460C4615461E462A200DF060FA62
:105E100038460DF047FA28460DF044FA2B200DF0D5
:105E200057FA20460DF03EFA30460DF03BFA2C2092
:105E30000DF04EFABDE8F08100BFFEE77047F0B507
:105E400003460C4603F00701C1F10700042801D9FD
:105E5000042001E0C1F107000646081D072801D211
:105E6000002000E0C81E05460120B040401E204032
:105E7000A8400127AF407F1E17403843F0BD704750
:105E800070B50446257860780543A0780543E0782E
:105E900005432A460021E820FFF78EFF70BD70B54C
:105EA00004461921E820FFF76DFF00F091052078E6
:105EB00008B1402000E000200543607808B12020B0
:105EC00000E000200543A07808B1082000E0002091
:105ED0000543E07808B1042000E000200543207964
:105EE00008B1022000E0002005432A461921E820DD
:105EF000FFF762FF70BD10B50C21E820FFF742FFED
:105F000000F0BF0422460C21E820FFF755FF10BD2A
:105F100010B50C21E820FFF735FF40F04004224681
:105F20000C21E820FFF748FF10BD70B5044608219A
:105F3000E820FFF727FF00F0E005207805436078B0
:105F40000543A0780543E07805432A460821E82068
:105F5000FFF732FF0921E820FFF714FF00F060058A
:105F60002079054360790543A07905432A46092134
:105F7000E820FFF721FF0A21E820FFF703FF00F0E8
:105F80000305E0790543207A0543607A0543A07A4A
:105F90000543E07A0543207B05432A460A21E82091
:105FA000FFF70AFF0B21E820FFF7ECFE00F0F000FE
:105FB00040F00805607B0543A07B05432A460B2182
:105FC000E820FFF7F9FEE57B207C0543607C054374
:105FD000A07C0543E07C0543207D05432A460C2137
:105FE000E820FFF7E9FE052000F067F970BD00002A
:105FF00000B589B04C484D49086000200890182130
:1060000002A8FFF735F90020009001904FF480714D
:1060100047480BF0BFFE4FF4007145480BF0B8FE47
:10602000052000F04AF900208DF820008DF82100AD
:1060300018208DF8220007208DF8230008A8FFF70C
:106040001FFF10208DF8080004208DF809000020A3
:106050008DF80A008DF80B008DF80C000C208DF8DF
:106060000D0003208DF80E0000208DF80F00402059
:106070008DF8100020208DF8110010208DF81200EE
:1060800000208DF8130004208DF8140000208DF8F6
:10609000150003208DF8160000208DF81700102041
:1060A0008DF8180008208DF8190004208DF81A00CA
:1060B00000208DF81B008DF81C0002A8FFF735FFAB
:1060C00000208DF800008DF8010001208DF80200FD
:1060D00000208DF803008DF804006846FFF7DFFE0E
:1060E000052000F0EAF8052000F0E7F8FFF703FFCD
:1060F00041F2707000F031F80E480078012804D1A8
:1061000041F2707000F048F803E00B48008800F09E
:1061100043F80A48008800F079F800F011F80A20E6
:1061200000F0CBF809B000BD005400403C10002046
:10613000000C014004000020D8000020D600002000
:1061400010B50921E820FFF71DFE40F0800422462B
:106150000921E820FFF730FE10BD70B50446082184
:10616000E820FFF70FFE00F01000102801D10C20EE
:1061700000E006200646200100EB8000410040F2CE
:106180007120704391FBF0F0401EC5B22A460621F3
:10619000E820FFF711FE70BD2DE9F0410646082109
:1061A000E820FFF7EFFD00F00C00042801D10620E5
:1061B00000E003200746300100EE100AB8EEC00AE6
:1061C0001148D0ED000A60EE200A40F271207843B9
:1061D00000EE100AB8EEC00A80EE801AB7EE000A90
:1061E00031EE400ABCEEC00A10EE100A85B2FF2D57
:1061F00001DDFF2400E0ECB222460521E820FFF794
:10620000DBFDBDE8F0810000F400002070B52DED4D
:10621000028B0546244890ED000AF7EE000A30EEA6
:10622000200A10EE101A0846FFF79EFA41EC180BF0
:1062300000EE105AF8EE400A1C4890ED001A80EE6D
:10624000810ADFED1B0A80EE201A9FED1A0A21EE6B
:10625000000ABDEEC00A10EE100A86B200240BE060
:10626000311B481EC11700EB91718910A0EB810111
:1062700001B903E0601C84B2032CF1DB00BF311BC9
:10628000481EC11700EB9171C1F38F06F2B20321D2
:10629000E820FFF791FDA007020E0421E820FFF798
:1062A0008BFDBDEC028B70BDEC000020F0000020E7
:1062B00000007A4400008044704710B50446204630
:1062C00021F07EFE10BD70471848006840F4700051
:1062D000164908601648006820F00100401C144967
:1062E000086000BF12480068C0F340000028F9D0E1
:1062F0000F48406820F003000D49486000BF0C487B
:106300004068C0F381000028F9D1094800680949B4
:106310000840074908600020486008634FF41F00E8
:106320008860C803014980390860704788ED00E043
:1063300000100240FFFFF2FE10B50121064820F0D8
:1063400072FC40B105480088401C044908800121C6
:10635000014820F05AFC10BD000C00400200002053
:1063600010B51021104821F011F9E0B10E4821F0CC
:10637000EDF800210D4805F0ABFC0C485838C06D15
:10638000C0F580700A49088008460088002802DDB0
:106390000120084988710121044805F099FC102169
:1063A000014821F0EAF810BD0038014058000240D1
:1063B0000C0100204400002000BFFEE710B5044699
:1063C0008CB14FF4005111480BF0E4FC4FF4C8704D
:1063D00005F0FFFB4FF400510C480BF0D9FC3220C4
:1063E00005F0F7FB10E04FF4005108480BF0D2FC29
:1063F000322005F0EEFB4FF4005104480BF0C8FCCE
:106400004FF4C87005F0E5FB10BD0000001001401E
:1064100070B50446002507E0C4F3C010FFF7CEFFB7
:106420006006040E681CC5B2082DF5DB70BDF0B522
:1064300005460E461746002407E03B4632462946ED
:10644000204600F005F8601C84B2012CF5DBF0BD9D
:1064500070B50C4601280ADA00EB4005A9B2044DDC
:106460006A542E464D1C74558D1C735500BF70BD6B
:106470000E02002070B500BFEFF31080054672B623
:10648000002405E00A49085DFFF7C2FF601C84B2E2
:10649000032CF7DB00BF85F3108800BF4FF40051D9
:1064A00004480BF075FC4FF4967005F098FB70BD36
:1064B0000E020020001001400FB4054B10B503A9D7
:1064C000044A029801F0B2FE10BC5DF814FB000013
:1064D00029110108580300200FB47CB50C0009AD48
:1064E00001D0611E00E00021CDE90001064B6A46A3
:1064F0002946089801F09AFE002C02D0009A00214B
:1065000011707CBC5DF814FB338900080FB4084B94
:1065100010B504A902AA039801F088FE044602A956
:10652000002002F011FA204610BC5DF814FB0000B8
:10653000498900087CB50C001D461646014601D06D
:10654000601E00E00020CDE90010064B6A46294697
:10655000304601F06BFE002C02D0009A0021117031
:106560007CBD00003389000802480068C0F30220A7
:10657000704700000CED00E010B5002804DB0A07AE
:10658000130E054A135406E00A07140E034A00F0DE
:106590000F031B1FD45410BD00E400E018ED00E011
:1065A000004870475C03002070B5D94B00242DEDE6
:1065B000020B2DED108BDDE91010984205DA20F06A
:1065C00000429A4201D809D141B19DED100BBDECBA
:1065D000108B02B0BDE8704000F05EBAB0F5801FCD
:1065E00026DA11430BD0002813DA012000F080FADC
:1065F000BDEC108B02B0BDE8704000F059BA02202B
:1066000000F076FA00F030FA51EC100B81F0004106
:106610009EE06FF035049FEDC00B53EC102B9DED09
:10662000100B51EC100BFEF768FFCDE91001084686
:1066300004EB2051C0F31304B948A1F2FF31204408
:1066400000F4801080F07F6282F04052224301EB20
:1066500020559FEDB50B119253EC102B9DED100BB7
:1066600051EC100BFEF743FF41EC180BA01CC0F3DC
:1066700013009FEDAFDB9FEDB0EBB14E7E440328DE
:106680006CD296ED000B51EC180B53EC102BFFF76E
:106690008DF91DD1002D01BF96ED000BBDEC108BC7
:1066A00002B070BD2846FFF709F841EC180B53EC17
:1066B0001D2BFEF722FF41EC190B53EC1E2B51EC66
:1066C000180BFEF71AFF53EC192BFEF76FFE3FE095
:1066D0009FED9D0B51EC180B53EC102BFEF70DFFAB
:1066E0009FED9B1B53EC112BFEF704FF41EC190BA4
:1066F00053EC182B51EC180BFEF7FFFE53EC192B43
:10670000FEF7FBFE41EC190B002D04BF53EC192BD7
:1067100051EC180B1AD02846FEF7D0FF41EC1A0BAB
:1067200053EC1D2BFEF7E9FE53EC192BFEF7E2FEAE
:1067300053EC182BFEF7DBFE41EC180B53EC1E2B31
:1067400051EC1A0BFEF7D9FE53EC182BFEF7CFFED7
:10675000BDEC108B02B041EC100B70BD9FED7E0BB9
:1067600051EC180B53EC102BFEF720FE41EC100BF4
:1067700051EC180B53EC102BFEF731FF41EC190BC9
:106780002846FEF79BFF41EC1B0B53EC192B51ECF9
:10679000190BFEF7B2FE41EC1A0B714853EC1A2BA1
:1067A000261851EC1A0BFEF7A8FE41EC1F0B6D48A2
:1067B000C4F1510404F5D724B0EE4F0AF0EE6F0A8D
:1067C0000321784400F0D2F853EC1F2B51EC100B4E
:1067D000FEF793FE41EC1C0B6348B0EE4F0AF0EE5F
:1067E0006F0A0421784400F0C1F853EC1A2B51ECE5
:1067F000100BFEF782FE344353EC1C2BFEF7D6FD44
:1068000041EC1C0B002C4CDD9FED510B51EC180B97
:1068100053EC102BFEF771FE53EC182BFEF76DFEB8
:1068200041EC1A0B55B353EC1D2B51EC1B0BFEF72F
:1068300064FE41EC1D0B53EC1C2B51EC1A0BFEF7C4
:10684000B5FD53EC192BFEF758FE53EC1D2BFEF74C
:10685000ADFD53EC1A2BFEF74DFE53EC182BFEF753
:1068600046FE41EC180B53EC1E2B51EC1B0BFEF7B4
:1068700044FE53EC182BFEF73AFE69E753EC1C2B51
:1068800051EC1A0BFEF792FD53EC192BFEF735FE77
:1068900053EC1A2BFEF72EFE53EC182BFEF72AFEB4
:1068A00056E735B353EC1D2B51EC1B0BFEF725FEC1
:1068B00041EC1A0B53EC1C2B51EC180BFEF717FE96
:1068C00053EC192BFEF719FE53EC1A2BFEF70FFEB3
:1068D00053EC182BFEF70BFE41EC180B53EC1E2B60
:1068E00051EC1B0BFEF709FE53EC182BFEF7FFFDD6
:1068F0002EE753EC1C2B51EC180BFEF7F8FD53EC74
:10690000192BFEF7FAFD53EC182BFEF7F3FD1FE7EA
:106910000000F07F00000000000000000000504375
:10692000645F090000000000000000000000F03F6C
:10693000763C7935EF39EA3D0000E0FE422EE63F35
:1069400028D2020000000000555555555555D53F39
:10695000000000000000E03F0000000000000040D8
:1069600086EBF9FFAAD00200A0D0020070B5044661
:106970002DED028B4D1E00EBC500B0EE408AF0EE0F
:10698000608A90ED000B35F0060017D053EC182B01
:1069900051EC100BFEF7B1FD41EC100B6D1E04EB3A
:1069A000C50090ED001B51EC100B53EC112BFEF7C2
:1069B000FDFC41EC100B35F00600E7D1022D36D07E
:1069C000042D1CD0062D1CBFBDEC028B70BD53ECFA
:1069D000182B51EC100BFEF790FD94ED0A1B53ECB5
:1069E000112BFEF7E3FC53EC182BFEF786FD94ED1C
:1069F000081B53EC112BFEF7D9FC41EC100B53ECA8
:106A0000182B51EC100BFEF778FD94ED061B53ECA0
:106A1000112BFEF7CBFC53EC182BFEF76EFD94ED1B
:106A2000040B53EC102BFEF7C1FC41EC100B53ECA4
:106A3000182B51EC100BFEF760FD94ED021B53EC8C
:106A4000112BFEF7B3FC53EC182BFEF756FD94ED1B
:106A5000001B53EC112BFEF7A9FCBDEC028B41ECA3
:106A6000100B70BD000000009FED070B10B553EC3C
:106A7000102B9FED070B51EC100BFEF7B0FD41EC16
:106A8000100B10BD0000000000000000000000001E
:106A9000000000000000F03F10B553EC102B51EC4B
:106AA000100BFEF783FC41EC100B10BD0000000042
:106AB0009FED050B10B553EC102B51EC100BFEF7AE
:106AC0008EFD41EC100B10BD000000000000000026
:106AD00002E008C8121F08C1002AFAD170477047A7
:106AE000002001E001C1121F002AFBD17047000005
:106AF00001490860704700005C0300202DE9FF5F3A
:106B000082B00021DDE90430020DDDF840B003431E
:106B100018D044F61050A2F2FF32424315141198D7
:106B200001281FD0A5EB0B00401C5FEA000A4FF0C4
:106B300000064E4FDFF83891B046504615D5CAF1E1
:106B4000000413E0119801244AA3012801D16FEA3F
:106B50000B010298119AC0E90031C0E9024206B067
:106B6000BDE8F09FCBF10000DFE704460021404A7A
:106B7000491842EB0450CDE9001012E0E00707D0BD
:106B800032463B4640464946FEF7B7FC80468946BA
:106B900032463B4610461946FEF7AFFC06460F4606
:106BA0006410002CEAD1DDE90401DDE90023BAF12B
:106BB000000F06DAFEF7A1FC42464B46FEF79DFCAD
:106BC00005E0FEF70CFD42464B46FEF708FD044685
:106BD0000E460022284BFEF701FF03D84FF0FF308E
:106BE000014607E00022254B20463146FEF7DEFB3A
:106BF000FEF7C4FE102409E0002C0ADB0A22002361
:106C0000FEF7DEFA039B30321A55641E50EA010289
:106C1000F2D1641C039AC4F111031444119A012A9D
:106C200003D0012208430DD10AE0084304D000201C
:106C30004FF0110B119072E7A3EB0B056D1E0DE0E9
:106C40005B4504DD4FF0000205F1010504E003DAC5
:106C50004FF00002A5F10105002AECD0029811992D
:106C6000C0E90231C0E9004579E7000000001440A6
:106C70000000F03F300000000000F0430000E03F63
:106C800010B54421074800F005FE00221E210648E9
:106C900019F0E2FB0549086002F04AFA00200449B5
:106CA000087010BD5C66002011920008CC02002024
:106CB000C80200202DE9F04F87B007460C46154664
:106CC0002946204600F066F920B94FF0FF3007B0A2
:106CD000BDE8F08F00222946204600F0FDF808B1FB
:106CE0000020F4E7002620460CF068FF401E00B2AA
:106CF000049020460CF0F6FE401E00B20390688817
:106D00006188401A0FFA80FABAF1000F16DD208868
:106D1000ADF814006088ADF81600A088ADF8180032
:106D20006088504400B2ADF81A003046711C4EB273
:106D300007EBC0000599016006994160E888618809
:106D4000411A0398401A0FFA80FBBBF1000F1CDDBB
:106D5000B5F90600B4F90610884216DA2088ADF8B5
:106D60001400E888ADF81600A088ADF81800E8888F
:106D7000584400B2ADF81A003046711C4EB207EB11
:106D8000C0000599016006994160B5F90200B4F9A7
:106D90000210884202DDB5F9020001E0B4F90200F8
:106DA0008046B5F90600B4F90610884202DAB5F952
:106DB000060001E0B4F9060002900298A0EB08007A
:106DC0000FFA80F928882188401A00B201900198B2
:106DD00000281BDDB9F1000F18DD2088ADF8140084
:106DE000ADF8168021880198084400B2ADF818006B
:106DF00008EB090000B2ADF81A003046711C4EB223
:106E000007EBC0000599016006994160A8882188B8
:106E1000411A0498401A00B200900098002818DD2A
:106E2000A888ADF81400ADF81680A9880098084429
:106E300000B2ADF8180008EB090000B2ADF81A0076
:106E40003046711C4EB207EBC000059901600699EF
:106E5000416030463BE730B50346B1F90040B2F936
:106E60000050AC4202DDB1F9004001E0B2F900404F
:106E70001C80B1F90240B2F90250AC4202DDB1F916
:106E8000024001E0B2F902405C80B1F90440B2F97D
:106E90000450AC4202DAB1F9044001E0B2F9044016
:106EA0009C80B1F90640B2F90650AC4202DAB1F961
:106EB000064001E0B2F90640DC800120B3F9004051
:106EC000B3F90450AC4205DCB3F90240B3F9065003
:106ED000AC4200DD002030BDF8B504460D46164634
:106EE0000027B4F90000B5F90010884212DBB4F9AC
:106EF0000200B5F9021088420CDBB4F90400B5F9C0
:106F00000410884206DCB4F90600B5F90610884280
:106F100000DC01270FB90020F8BD0EB90120FBE706
:106F20002088ADF800006088ADF80200324669465E
:106F3000284600F0A7F808B90020EDE7A088ADF8D2
:106F400000006088ADF8020032466946284600F02D
:106F500099F808B90020DFE72088ADF80000E08844
:106F6000ADF8020032466946284600F08BF808B9B1
:106F70000020D1E7A088ADF80000E088ADF802005D
:106F800032466946284600F07DF808B90020C3E77C
:106F90000120C1E70246B2F90000B1F9043098427D
:106FA00013DCB2F90400B1F9003098420DDBB2F9FC
:106FB0000200B1F90630984207DCB2F90600B1F9D7
:106FC0000230984201DB012070470020FCE7F8B551
:106FD00004460D461646B4F90400B5F9001088427F
:106FE00011DBB4F90600B5F9021088420BDBB4F9E5
:106FF0000000B5F90410884205DCB4F90200B5F9C7
:107000000610884201DD0120F8BD0EB90020FBE723
:107010002088ADF800006088ADF80200324669466D
:10702000284600F02FF808B10020EDE7A088ADF861
:1070300000006088ADF8020032466946284600F03C
:1070400021F808B10020DFE72088ADF80000E088D3
:10705000ADF8020032466946284600F013F808B140
:107060000020D1E7A088ADF80000E088ADF802006C
:1070700032466946284600F005F808B10020C3E70B
:107080000120C1E72DE9FC5F05460E4614464FF08E
:10709000000AB6F90000B5F90010884213DBB6F912
:1070A0000000B5F9041088420DDCB6F90200B5F90C
:1070B0000210884207DBB6F90200B5F906108842D3
:1070C00001DC4FF0010ABAF1000F02D10020BDE847
:1070D000FC9F002C01DC0120F9E728460CF06EFD36
:1070E000834600EBDB70471028460CF0FBFC834620
:1070F00000EBDB704FEA6008474501DA384600E0F4
:10710000404681464C4500DD4C462888ADF80000DD
:107110002888204400B2ADF804006888ADF8020069
:107120006888204400B2ADF8060000223146684667
:10713000FFF7A8FF80B1BDF80400204400B2ADF80D
:107140000400BDF80600204400B2ADF80600314648
:10715000684618F0CFF8BAE7E888001B00B2ADF82F
:107160000200E888ADF80600002231466846FFF7C5
:1071700089FF80B1BDF80400204400B2ADF80400DE
:10718000BDF80200001B00B2ADF8020031466846AF
:1071900018F0B0F89BE7A888001B00B2ADF800001B
:1071A000A888ADF80400002231466846FFF76AFF60
:1071B00080B1BDF80000001B00B2ADF80000BDF8C2
:1071C0000200001B00B2ADF802003146684618F01C
:1071D00091F87CE76888ADF802006888204400B226
:1071E000ADF80600002231466846FFF74BFF80B13C
:1071F000BDF80000001B00B2ADF80000BDF80600AD
:10720000204400B2ADF806003146684618F072F826
:107210005DE701205BE710B5B1F90030B2F900403D
:10722000A34202DAB1F9003001E0B2F90030038084
:10723000B1F90230B2F90240A34202DAB1F90230E8
:1072400001E0B2F902304380B1F90430B2F90440F0
:10725000A34202DDB1F9043001E0B2F904308380C9
:10726000B1F90630B2F90640A34202DDB1F90630A9
:1072700001E0B2F90630C38010BD0000F8B5054644
:1072800019F0CCF807460020009035B14C49E86869
:107290000860284619F0F8F903E00DF035FB48497D
:1072A000086047490968086917F0C4FE4448006847
:1072B000406920B142490968486917F0BBFE40495E
:1072C0000968C86917F0B6FE3D490968086A17F0F1
:1072D000B1FE3B480068006938B9002038490968A8
:1072E000A1F8500100BF00BFF8BD18F097F81CF0DE
:1072F000A3FA1CF041F832480068B0F850010028A9
:1073000056D02F4800680068007C00F0010040B3B0
:107310002B4800680068C068406810B3002419E07A
:107320002748006800F59870005D00B110E024481F
:10733000006800F5AC7000F00FFB064620480068BE
:10734000303000EBC400016831604068706000BFFD
:10735000601C84B21A480068B0F85001A042DFDC1B
:1073600000BF4FF4807116480068303013F0D2FB34
:1073700020211348006800F5987013F0CBFB002023
:107380000F490968A1F85001384619F039F8009002
:107390000B4800680068406A50B1094909680868EC
:1073A0000749096809684B6A06490A6800999847BD
:1073B00013F028F900F03EF800F006F800BF93E75C
:1073C000480200204402002010B5002416E0C4EB5F
:1073D000C4000C4951F8200030B1C4EBC401094A83
:1073E00052F8210013F0C0F9C4EBC401054A02EBC6
:1073F00081001C2113F08EFB601CC4B2042CE6DB60
:1074000010BD0000386700200146094A10680BE0F3
:1074100042688A4202D002688A4204D1027E22F087
:107420000102521C027640690028F1D17047000029
:107430001C0200207047000010B50421014800F034
:1074400029FA10BD5066002010B52021014800F037
:1074500021FA10BD686600202DE9FF4704460D465D
:1074600016461F46DDE90C896FB9B8F5807F0AD151
:10747000002020806080681E00B2A080701E00B2D4
:10748000E080BDE8FF87002000900190029003900B
:10749000ADF80450ADF80A60ADF80C50ADF80E60D0
:1074A0004B4642463946684617F05AFE4B4642461E
:1074B000394601A817F054FE4B464246394602A809
:1074C00017F04EFE4B464246394603A817F048FED9
:1074D000BDF90000BDF90410884202DABDF90000D0
:1074E00001E0BDF90400BDF90810BDF90C2091427E
:1074F00002DABDF9081001E0BDF90C1088420BDA80
:10750000BDF90000BDF90410884202DABDF900009F
:107510000DE0BDF904000AE0BDF90800BDF90C104A
:10752000884202DABDF9080001E0BDF90C00801EB6
:1075300000B22080BDF90000BDF90410884202DDD0
:10754000BDF9000001E0BDF90400BDF90810BDF966
:107550000C20914202DDBDF9081001E0BDF90C10CC
:1075600088420BDDBDF90000BDF90410884202DD40
:10757000BDF900000DE0BDF904000AE0BDF9080006
:10758000BDF90C10884202DDBDF9080001E0BDF92B
:107590000C00801C00B2A080BDF90210BDF90600ED
:1075A000814202DABDF9020001E0BDF90600BDF931
:1075B0000A20BDF90E108A4202DABDF90A1001E074
:1075C000BDF90E1088420BDABDF90210BDF90600B4
:1075D000814202DABDF902000DE0BDF906000AE0C1
:1075E000BDF90A10BDF90E00814202DABDF90A00A8
:1075F00001E0BDF90E00801E00B26080BDF90210EE
:10760000BDF90600814202DDBDF9020001E0BDF9CD
:107610000600BDF90A20BDF90E108A4202DDBDF94F
:107620000A1001E0BDF90E1088420BDDBDF9021011
:10763000BDF90600814202DDBDF902000DE0BDF991
:1076400006000AE0BDF90A10BDF90E00814202DD14
:10765000BDF90A0001E0BDF90E00801C00B2E08017
:1076600000BF0EE72DE9F743054616460024134CEC
:1076700018F0D4FE8046334629462046019A11F080
:10768000B1FD07465FB900BF00BF2C21204613F0B3
:1076900041FA4FF00040A0620020BDE8FE830020C8
:1076A000A062E06918B9404618F0AAFEE061E069FE
:1076B00008B90120E0612046EFE700008C66002059
:1076C00010B51421114800F0E5F811F03DFD044615
:1076D00000BF1CB900BF00BF00BFFEE700BF14B968
:1076E00000BF00BF10BD0A49204611F015FE094930
:1076F000204611F013FE0849204611F011FE0749FB
:10770000204611F007FE00BFECE700007466002081
:10771000F9880108CD8D010855900108C38801083A
:107720002DE9FF4104460F4614B90DF0EDF804466B
:107730000CB9BDE8FF8120460DF07FF900B9F8E7EC
:1077400094F82800C0F3800010B100BF00BFF0E73C
:107750001FB90020A4F85001EBE70020ADF80800A5
:10776000ADF80A0020460DF0E7F8401E00B2ADF873
:107770000C0020460DF046F9401E00B2ADF80E0098
:1077800002AA39466846FFF766FB064606B9D0E707
:107790002068007CC0F3400060B102982063039829
:1077A00060630120A4F85001606810B1606818F0AF
:1077B00077FFBEE72068806918B120686946826952
:1077C000904700250BE004F1300000EBC5010022DA
:1077D0006846FFF781FB00B1ABE7681C85B2B4F8DF
:1077E0005001A842EFDCB4F85001202809DAB4F8BF
:1077F000502104F1300101EBC20069460CF014F98C
:107800000BE00020A4F85001B4F8502104F130013D
:1078100001EBC20002A90CF007F9B4F85001401CBA
:10782000A4F85001606810B1606818F039FF00BF1B
:107830007FE770B50546284600F013F80446002699
:107840000CE02146284600F012F80646214628465C
:1078500000F0AEF8204612F087FF3446002CF0D13D
:1078600070BD014609B9002070474868FCE7024630
:107870000B461068001D03441868704702460B460B
:107880001068034418687047014609B90020704722
:107890008868FCE7002242608260CA1C22F0030173
:1078A0000160704770B50446216801F1080012F0CC
:1078B0007DFE0546A5B10022294620461AF08CFF20
:1078C0002946204662681AF079FF606820B12A468E
:1078D000204661681AF080FF6560A06800B9A56065
:1078E000284670BD2DE9F04106460D4606B115B992
:1078F0000020BDE8F0813046FFF7B3FFA84206D173
:107900003046FFF7CFFF044624BB0020F1E7316883
:1079100001F1080012F04AFE04460CB90020E8E725
:1079200029463046FFF7AAFF074622463946304629
:107930001AF044FF3A46214630461AF04DFF2246DF
:10794000294630461AF048FF2A46214630461AF0AA
:1079500035FF00BF2046CCE770B50446216801F131
:10796000080012F023FE0546A5B100222946204654
:107970001AF024FF29462046A2681AF02DFFA068BD
:1079800020B12A462046A1681AF018FFA560606859
:1079900000B96560284670BD014609B901207047ED
:1079A000486818B9886808B90120F8E70020F6E7A8
:1079B0002DE9F04104460D460CB9BDE8F0812046A2
:1079C000FFF74FFFA8420FD129462046FFF74FFF90
:1079D0006060606810B90020A0602FE0002220469F
:1079E00061681AF0F9FE29E02046FFF74DFFA84232
:1079F0000FD129462046FFF741FFA060A06810B9CB
:107A0000002060601AE000222046A1681AF0D6FE2D
:107A100014E029462046FFF731FF06462946204656
:107A2000FFF725FF07463A46314620461AF0C6FEC4
:107A30003246394620461AF0CFFE00BF00BFBCE7F1
:107A400010B504462068806818B120682146826815
:107A500090472068006828B12068006820602046B0
:107A6000FFF7EEFF10BD0146886818B18868B0F9CD
:107A7000160070470020FCE70146886818B1886846
:107A8000807E800970470020FCE72DE9F041044624
:107A90000D4616461DB916B90120BDE8F0812046F5
:107AA00013F06CF9A068008A284400B2A16808822B
:107AB000A068408A304401B2A06841820123324666
:107AC0002946204615F002FF00220B21204610F027
:107AD00043F80746012F01D03846DEE7204615F06F
:107AE00047FE0120D9E7F7B582B004460E4614B927
:107AF000049805B0F0BD00BF62223146204615F063
:107B0000BBF90190019D00BFBDB12868A8B100BFBD
:107B100063223146204615F0AFF901900198C0B2BA
:107B200007464FB13A462B6828460499984701907A
:107B3000BDF80400ADF8100000BF0498D9E70000BC
:107B40002DE9F04F95B004468B4691469A461E9D0E
:107B5000608C20F0080008306084A4F820902A8906
:107B60005946204615F088F91490A4F820A02A89D7
:107B70005946204615F080F91390608C20F00800DB
:107B80006084DDE9131088420CD1DDE913108842CE
:107B900008D1BDF85000BDF84C10884202D115B094
:107BA000BDE8F08FA4F820902A895946204615F0A8
:107BB00063F91490A4F820A0594620460AF086F8EC
:107BC00012902989129A1068149A18F009FA2889D3
:107BD0000B2833D147F6FF711498884202D01398CE
:107BE00088422BD1204615F07BFB009000EBD07033
:107BF0004710204614F002F9009000EBD0704FEAD5
:107C0000600847F6FF711498884208D1781C08F183
:107C10000101884200DA01E008F10100149047F602
:107C2000FF711398884208D1781C08F1010188423D
:107C300000DA01E008F10100139000BF2348FFF7CC
:107C400031FE064600BF1EB900BF00BF00BFFEE701
:107C500000BF06B9A3E71498F06013983061346050
:107C60002889B080C6F808B001A80BF0DFFD3146C6
:107C700001A80BF060FE164901A80BF035FE15486F
:107C8000039000BF144901A80BF036FEFF2200212B
:107C900001A80BF046FE298801A80BF036FE698882
:107CA00001A80BF01AFEE868089000BF01A80021A7
:107CB00090F8422061F3000280F8422000BF28695A
:107CC000079001A80BF04CFE00BF68E7806600201B
:107CD000816E0208D97002080970020810B51421DB
:107CE0000148FFF7D7FD10BD806600202DE9FE4F4B
:107CF00004460F4690464FF0000900254CE1E0682D
:107D000000EBC5004068C0F3406000B143E1E168AA
:107D100001EBC501496821F07F4017F050F9064694
:107D200026EA070008B9012000E00020029026EAB8
:107D3000080008B9012000E000200190DDE9010100
:107D4000814270D0E06850F835A04FF0000B6A46D1
:107D50001021504617F09EFD10B14FF0010B98E036
:107D60006A461121504617F095FD10B14FF0010BF6
:107D70008FE06A461221504617F08CFD10B14FF08B
:107D8000010B86E06A461321504617F083FD10B1BF
:107D90004FF0010B7DE06A461521504617F07AFD41
:107DA00010B14FF0010B74E06A461421504617F0F1
:107DB00071FD10B14FF0010B6BE06A460A2150468D
:107DC00017F068FD10B14FF0010B62E06A466B21BD
:107DD000504617F05FFD10B14FF0010B59E06A46B5
:107DE0006C21504617F056FD10B14FF0010B50E0DA
:107DF0006A460121504617F04DFD10B14FF0010BBE
:107E000047E06A460421504617F044FD10B14FF098
:107E1000010B3EE06A460221504617F03BFD18B1C7
:107E20004FF0010B35E0B5E06A460321504617F0EC
:107E300031FD10B14FF0010B2BE06A460521504691
:107E400017F028FD10B14FF0010B22E06A46062121
:107E5000504617F01FFD10B14FF0010B19E06A46B4
:107E60003221504617F016FD10B14FF0010B10E013
:107E70006A466E21504617F00DFD10B14FF0010B10
:107E800007E06A466D21504617F004FD08B14FF037
:107E9000010BBBF1000F02D00320BDE8FE8F6A4644
:107EA0006921504617F0F6FC10B14FF0020970E05E
:107EB0006A466A21504617F0EDFC10B14FF00209F6
:107EC00067E06A466E21504617F0E4FC10B14FF0AF
:107ED00002095EE06A466D21504617F0DBFC10B1E6
:107EE0004FF0020955E06A463721504617F0D2FCA0
:107EF00010B14FF002094CE06A463821504617F0A5
:107F0000C9FC10B14FF0020943E06A4635215046E2
:107F100017F0C0FC10B14FF002093AE06A46402168
:107F2000504617F0B7FC10B14FF0020931E06A4635
:107F30004521504617F0AEFC10B14FF0020928E081
:107F40006A464121504617F0A5FC10B14FF00209D6
:107F50001FE06A464221504617F09CFC10B14FF0DA
:107F6000020916E06A464321504617F093FC10B10F
:107F70004FF002090DE06A464921504617F08AFC8D
:107F800010B14FF0020904E0B9F1000F01D14FF038
:107F9000010900BF00BF6D1C608CC0F30510A84232
:107FA0003FF6ADAE484678E70148006870470000EC
:107FB0004802002070470146C1F30412072A00DD81
:107FC0000722D0B27047000001464FF6FF70814291
:107FD00001D11F20704709B90020FBE7712902DA9F
:107FE0000948405CF6E7A1F1710081B207480068DA
:107FF00038B107480068814203D204480068405CF9
:10800000E8E70020E6E7000038C70208F002002099
:108010000403002010B518210348FFF73BFC0120A2
:1080200018F056FA10BD00002C6600202DE9F04132
:1080300006460C4617461D4629463046084A126831
:1080400090472060206830B1296888190021044ACF
:108050001268904700E000203860BDE8F081000021
:108060002C0300202DE9F04F87B004460F469246BE
:108070009846DDE910560DB1002028801CB900207B
:1080800007B0BDE8F08F207808B90020F8E70FB9F5
:108090000020F5E74FF0000906F0020010B906F0E5
:1080A000040098B1002000E0401C215C0A2905D0A2
:1080B000215C0D2902D0215C0029F5D1215C01B1A0
:1080C000401C15B14FF0FF312980D9E706F00200BE
:1080D00008B141F6FF7800200690059038E00020B6
:1080E0000490059808B9012000E0002006A904AA20
:1080F000CDE90062CDE90210059960184346524669
:10810000394618F03DFC83460498A8EB00000FFAAE
:1081100080F8049848440FFA80F9BBF1000F00D1B1
:108120001CE005985844059020780A2802D0207851
:108130000D2800D112E00598205C0A2803D005988C
:10814000205C0D2803D10598401C059006E000BF77
:108150000598205C10B1B8F1000FC0DC00BF059895
:1081600070B905A92046094A12689047834635B17F
:108170000022594638460FF073FE0FFA80F900BF0F
:108180000DB1A5F8009005987AE700002C030020B7
:10819000024600200FA31B788B4211D113781BB924
:1081A0000123137001200BE01378012B02D100236F
:1081B000137005E01378022B02D100231370012005
:1081C0001378012B04D1202901D10223137001203F
:1081D00070470000230000002DE9F04781460E465D
:1081E00014461F46DDF820A035461BE0600800FB62
:1081F000075529464846D047B0F1000809DD04F08C
:10820000010080F00100C0EB5404E8190546064661
:1082100008E0B8F1000F02DA6408354602E02846AB
:10822000BDE8F087002CE1D10020F9E72DE9FF4FF0
:1082300095B09A46884606460025EEE1252877D176
:1082400000242746F94A0121039400E0044316F86C
:10825000013F203B01FA03F01042F7D130782A2881
:1082600011D06FF02F033078A0F13002092A16D810
:10827000039A44F0020402EB820203EB4202104430
:10828000761C0390EFE758F8042B0392002A03DAD8
:10829000504244F40054039044F00204761C3078B9
:1082A0002E2816D116F8010F44F004042A280DD008
:1082B0006FF02F023078A0F13003092B09D807EBBB
:1082C000870302EB4303C718761CF3E758F8047BD7
:1082D000761C30786C280FD006DC4C2817D0682824
:1082E0000DD06A2814D104E0742810D07A280FD158
:1082F0000DE044F400140AE044F4801401E044F476
:1083000040147278824202D104F58014761C761CE7
:10831000307866280BD013DC582877D009DC002889
:1083200075D04528F6D04628F4D047281AD193E1D5
:1083300018E0632835D0642879D0652812D18BE104
:10834000702873D008DC6728F1D069286FD06E28B8
:108350000DD06F2806D1ACE073282CD0752874D0CE
:10836000782853D05246179990476D1C54E1C4F3B6
:108370000250022809D003280DD0D8F80010042894
:108380000DD00D6008F1040846E1D8F80010EA1796
:10839000C1E90052F6E7D8F800100D80F2E70D7041
:1083A000F0E718F8041B8DF8001000208DF801008C
:1083B000EB46012003E058F804BB4FF0FF306107A3
:1083C0004FF0000102D40DE009F101018946B942E4
:1083D0000FDA8145F8DB1BF809100029F4D108E019
:1083E00009F1010189468142FADB1BF809100029D5
:1083F000F6D103985346A0EB090721463846179A51
:1084000000F080FA284400EB090507E044E008E1A9
:108410000DE01BF8010B524617999047B9F101097D
:10842000F7D2534621463846179AF2E039E00A213E
:10843000C4F302524FF0000B0091022A06D058F804
:10844000040BC117032A09D00AE023E008F1070052
:1084500020F00702F2E80201904605E000B2C117E1
:10846000042A01D140B2C117002906DA0A460021C8
:10847000404261EB02012D2202E0220504D52B22AD
:108480008DF80420012203E0E20701D02022F7E763
:10849000914657E00A2100E010214FF0000B0091B7
:1084A0000BE010214FF0000B44F00404082700916A
:1084B00003E008204FF0000B0090C4F30252022AA0
:1084C00005D058F8040B0021032A08D008E008F171
:1084D000070020F00702F2E80201904603E080B2B4
:1084E000042A00D1C0B24FF0000922072AD5327801
:1084F000702A07D0DDF800C08CF0100C5CEA0B0C81
:1085000005D00EE040228DF80420012208E050EA58
:10851000010306D030238DF804308DF805200222A7
:108520009146009B83F0080353EA0B030AD150EAFB
:10853000010201D1620705D530228DF804204FF0E9
:1085400001097F1E3278582A04D039A20C920CAA55
:1085500002920BE03BA2F9E75B46009AFCF730FE83
:108560000C9B9B5C029A521E0292137050EA01020D
:10857000F2D1029804A9081A00F1200B600702D575
:1085800024F4803400E001275F4502DDA7EB0B00F7
:1085900000E0002000EB0B01009003984944401AD2
:1085A0000390E00306D453462146179A039800F03F
:1085B000A9F90544002706E001A85246C05D1799B5
:1085C00090476D1C7F1C4F45F6DBE0030CD55346EE
:1085D0002146179A039800F095F9054404E03020ED
:1085E0005246179990476D1C0099481E009000292B
:1085F000F5DC08E00298029952460078491C029185
:10860000179990476D1CBBF10001ABF1010BF1DC38
:108610005BE100F065F90544761C307800287FF4B2
:108620000DAE19B02846BDE8F08F00000928010002
:1086300030313233343536373839616263646566D8
:10864000000000003031323334353637383941429A
:108650004344454600000000600700D4062708F1A7
:10866000070020F00700F0E80223804603F0004CEA
:108670005FEA0C0001D097A009E0200501D596A083
:1086800005E0E00701D095A001E0AFF24C001390A7
:10869000307823F0004365280CD006DC452809D04B
:1086A00046281DD047287FD13BE0662818D0672890
:1086B0007AD136E00021112F01DB112000E0781C77
:1086C000CDE9000104A90CA8FEF718FADDE90D01B7
:1086D0000C9A4FF0000B07F10109109200914EE047
:1086E0004FF000400097CDE9011004A90CA8FEF757
:1086F00005FADDE90D020C9B0F994FF0000B914636
:108700001093009211B9791C00EB0109B7EB090035
:1087100003D4C0F1FF3B07F10109A9EB0700019069
:1087200042E0012F00DA01270021112F01DD112085
:1087300000E03846CDE9000104A90CA8FEF7DEF9F7
:10874000DDE90D010C9A00914FF0000BB946109233
:1087500021070FD4009A4A4503DA914601E0A9F1B6
:108760000109B9F1010F05DD109AA9F10101515C70
:108770003029F4D0B84202DA10F1040F03DA0121F3
:10878000CDE9011010E0002803DC8344A9EB0001CF
:1087900002E0411C494500DD8946A0EB0B00401C6E
:1087A00001904FF000400290200705D40198484501
:1087B00002DB4FF0FF30019000208DF84B00029853
:1087C0000DF14B07B0F1004F25D002200C902B206B
:1087D0000D90029800280CDA404202902D200D9056
:1087E00007E00A210298FCF7D2FF3031029007F827
:1087F000011D0C99481E0C900029F2DC02980028FB
:10880000EFD1791E0D980870307800F0200040F00C
:10881000450007F8020D11A8C01BC01D0290139857
:10882000007800B1012000EB0901019801EBE07133
:10883000029801440398401A401E0390E00306D4B6
:1088400053462146179A039800F05CF805441398A4
:10885000007818B15246179990476D1CE00323D554
:1088600053462146179A039800F04CF805441BE044
:10887000BBF1000F07DB0098584504DD10981799ED
:1088800010F80B0001E017993020524690470198EC
:108890000BF1010B401E05F10105019004D12E20C2
:1088A0005246179990476D1CB9F10001A9F10109D1
:1088B000DEDC05E017F8010B5246179990476D1C56
:1088C0000299481E02900029F4DC53462146179A6B
:1088D00003989EE62D0000002B0000002000000001
:1088E0002DE9F041044600251E461746880404D4AD
:1088F00005E039462020B0476D1C641EF9D5284696
:10890000BDE8F0812DE9F041044600251E46904661
:10891000C80301D5302700E02027880404D505E0EE
:1089200041463846B0476D1C641EF9D52846BDE85F
:10893000F0814A68002A06D00A68531C0B60107048
:108940004868401E486070470A68531C0B601070EE
:108950007047000030B90A4A126822F00202084B40
:108960001A6006E0064A126822F00202921C044BCA
:108970001A60034A126861F30002014B1A607047E3
:108980000458014001490860704700000C5801403C
:108990000149086070470000105801400149086013
:1089A00070470000145801400B78426863F30822B6
:1089B00042604B78826863F3410282608B78826800
:1089C00063F3CB228260CA78521EC36A62F31753E4
:1089D000C362704700210170417081700121C17034
:1089E0007047816821F008010831816070470146B5
:1089F0008868C0F3C00008B1012070470020FCE780
:108A0000816821F00401091D816070470146886872
:108A1000C0F3800008B1012070470020FCE700008F
:108A20002DE9F0412DED108B0020D849088001215F
:108A3000D74800F08EFAD74C05E01CB90020D34986
:108A4000088004E0641ED14800880028F5D100BFEA
:108A5000D1484088D14909680844D0490860CE48C7
:108A6000C088CF4909680844CD490860CA48408990
:108A7000CC4909680844CB490860CB480078401CC1
:108A8000C9490870C9480088401CC8490880084680
:108A90000088C8282FDBC34890ED000AB8EE400AD2
:108AA00010EE100AFCF760FE41EC1B0B9FEDC00BB3
:108AB00053EC102BFCF793FD41EC1A0B53EC1A2BE3
:108AC0009FEDBD0B51EC100BFCF789FD41EC190B30
:108AD0009FEDBB0B53EC102BFCF70FFD41EC180B7B
:108AE000FCF70AFE85B2B84805800020AF4908802F
:108AF000AC49086000BFAC48007832287EDBA6484D
:108B0000008800EE100AB8EE400A9FEDB01AC0EEE1
:108B1000010AAD48008800EE100AB8EE400A20EEC7
:108B2000800AAB48D0ED000A20EE200ABDEEC00A54
:108B300010EE100AA74908809748008900EE100A35
:108B4000B8EE400ADFEDA40A30EEC00ADFEDA30A5A
:108B500060EE200A9048008900EE100AB8EE400A44
:108B600080EE801ABCEEC10A10EE100A9C49088003
:108B70000846008800EE100AB8EE400ADFED970ABA
:108B800080EE201A11EE107A3846FCF7EDFD41EC2C
:108B90001E0BB0EE4E0AF0EE6E0AFDF705FDB0EECC
:108BA00040DAF0EE60DA9FED8F0B53EC102B51ECB6
:108BB0001D0BFCF714FD41EC1C0B9FED8C0B53ECD3
:108BC000102BFCF7F3FB41EC1B0B53EC1B2B9FED25
:108BD000890B51EC100BFCF702FD41EC1A0B9FEDD9
:108BE000870B53EC102BFCF782FC41EC190BFCF7C4
:108BF000A2FD7B4908806848808900E0C1E000EE62
:108C0000100AB8EE400ADFED7F0A20EE200ADFED01
:108C10006F0A80EE201AB0EE418A9FED7B0A70EE5B
:108C2000480A9FED7A1A80EE810AF3EE090A30EEC7
:108C3000200A774880ED000A76480068FCF794FD2A
:108C400041EC1A0B60480088FCF749FD41EC1C0B15
:108C5000534890ED000AB8EE400A10EE100AFCF7F7
:108C600083FD41EC1F0B9FED6C0B53EC102BFCF7BD
:108C7000B6FC41EC1E0B9FED6A0B53EC102BFCF77E
:108C8000AEFC41EC1D0B53EC1C2BFCF736FC41EC0D
:108C90001B0B53EC1A2BFCF730FC41EC190BFCF7C7
:108CA0002BFD86B26048068060480078012810D10C
:108CB0005D4800885E490988884207DB5A48008879
:108CC0005B490988401A5849088002E0002056494B
:108CD000088058480068FCF747FD41EC1A0B3A48F9
:108CE0000088FCF7FCFC41EC1C0B2C4890ED000AC2
:108CF000B8EE400A10EE100AFCF736FD41EC1F0BEF
:108D00009FED450B53EC102BFCF769FC41EC1E0B5F
:108D10009FED430B53EC102BFCF761FC41EC1D0B5A
:108D200053EC1C2BFCF7E9FB41EC1B0B53EC1A2B0F
:108D3000FCF7E3FB41EC190BFCF7DEFC85B23E4887
:108D40000580008800EE100AB8EE400A9FED3B1A3D
:108D5000C0EE010A3448008800EE100AB8EE400A5E
:108D600020EE800ABDEEC00A354880ED000A0020E2
:108D70000A4908600A4908600B4908701FF050F85A
:108D800000BFBDEC108BBDE8F081000000000020AA
:108D900000240140A08601009C0300205001002017
:108DA00054010020580100205C0100205E010020D9
:108DB0000000000000006940000000000000B0401A
:108DC000000000000088A340A800002000F07F45BC
:108DD000DC0000209A0000200000804500401C4676
:108DE000A6000020000000000068AA40000000E08B
:108DF000E1796B3F000000000000F03F00000060E0
:108E000066127140333353400AD7A33F78978BBB28
:108E1000B4000020E80000200000000000004940ED
:108E20000000000000FEAF409C000020D4000020A5
:108E30009E000020E00000209600002000007A4400
:108E4000B00000200349096860F31341014A116032
:108E50007047000004240140826861F308228260A8
:108E60007047826861F300028260704770B5044603
:108E70000A290CDA206901EB41060725B540A84311
:108E800001EB410503FA05F5284320610FE0E06896
:108E9000A1F10A0505EB45060725B540A843A1F158
:108EA0000A0505EB450503FA05F52843E0600D2AA0
:108EB00010DBE06AA2F10D0505EB85061F25B54024
:108EC000A843A2F10D0505EB850501FA05F5284338
:108ED000E0621EE0072A0EDB206BD51F05EB85063E
:108EE0001F25B540A843D51F05EB850501FA05F5FB
:108EF000284320630DE0606B551E05EB85061F259A
:108F0000B540A843551E05EB850501FA05F5284334
:108F1000606370BD07290ADD836823F0007303F1E5
:108F200000738360836861F35343836007E0836861
:108F300023F000738360836861F353438360836825
:108F400062F3145383607047426861F3CB2242603E
:108F50007047826861F396528260704703490968DE
:108F600060F3D751014A11607047000008240140A6
:108F70002DE9F04104460E46002774B131462046E3
:108F800000F02DF80546B5F5803F05D20C2D01D92E
:108F9000284600E00C20074600BF3846BDE8F081B7
:108FA000024600BF481E084018B100BF00BF00BF06
:108FB000FEE700BF481E1040101A704710B5024669
:108FC0004B1E13444C1E23EA040000BF4B1E0B40F3
:108FD0001BB100BF00BF00BFFEE700BF10BD0246CF
:108FE00000BF481E084018B100BF00BF00BFFEE729
:108FF00000BF481E10444B1E984370472DE9F84FA0
:1090000081460E46924699F8090000F007000228B2
:1090100001D1304600E050468346564501DD3046DA
:1090200000E050460746032000EB470020F0030015
:1090300000F110053948006839490968A0EB0108BA
:10904000002405EB080037490968884206D23348F6
:109050000468606820F0004060603AE031480068D1
:10906000854221D813E04FF0FF300090002269467E
:109070002D4809F0D5FE002269462C4809F0D0FEA3
:109080002648006826490968A0EB010800BF08EBE4
:109090000500244909688842E5D8204804686068CA
:1090A00020F00040606014E0284611F07FFA04468A
:1090B00000BF1CB900BF00BF00BFFEE700BF14B96E
:1090C0000020BDE8F88F606820F0004000F100400B
:1090D000606032465946484602F0E1F82060606818
:1090E00000F04040401C6060606820F0804060609C
:1090F000A781A4F80EB06068C00F20B1204600F12F
:109100001001A16008E0054800681030A060034825
:1091100000682844014908602046D2E75002002038
:10912000EC0200204C0200207B040108A12E010863
:1091300010B50120074908700748FEF792FB20B9D7
:109140000648006817F0A0FA03E00448006817F02A
:10915000A7FA10BDC80200205C660020CC020020E7
:1091600010B5044694F84200C0F3400070B9B4F85A
:10917000400000280ADDB4F840004FF6FF71884235
:1091800004D0B4F84000401EA4F84000B4F84000F9
:10919000D0B9A06B20B194F84200C0F3400098B160
:1091A00021461A48FEF704FCFFF7C2FFE06810B141
:1091B0002046E1688847206910B120462169884728
:1091C000204611F0D1FA1FE0E06B40422063A06B13
:1091D000D0B194F84210C1F3400111B9616B49421A
:1091E000216394F842104908C94394F8422061F37E
:1091F000410284F84220206AA16A2162A062E06AEA
:10920000A16BE162A06300BF10BD00005C6600209E
:109210002DE9F04180464248006817F0F1F8064613
:109220004048007880F001003E4908703E48FEF753
:1092300018FB04466BE000203C49087094F842009B
:10924000C0F3800037490978884253D03548017807
:109250003034A07C61F38200A07420688719A07C60
:10926000303CC0F3C00010BB206B00281FDC002F77
:109270001DDB94F8420000F0010060B9606950B154
:109280002046616988470546206A28442062A06A12
:109290002844A06200BFA06810B12046A16888479A
:1092A00094F8420020F00800083084F84200206B57
:1092B00030442063206B00281BDBD4E90B1088426C
:1092C00001DDE06A20632046E16988470546606A5F
:1092D000A84206D06562606818B12946D4E9000248
:1092E0009047D4E90B10884202DB2046FFF738FF95
:1092F00000BF00BF0D48007820B10B48FEF7B1FA5F
:10930000044604E021460848FEF7B1FA0446002C62
:1093100091D117F083F802490860BDE8F0810000A0
:10932000C4020020C90200205C660020C8020020A0
:1093300070B504460D46606818B129466068FFF7AD
:10934000F7FF206818B1294620462268904770BD73
:109350002DE9FF4F8FB01F46DDF888801C980E90D6
:109360001D980D9000200B902398042806D0052806
:1093700009D006280CD014281AD114E000200C9033
:109380004FF0020917E001200C904FF0030912E0A2
:1093900001200C904FF00209FEF706FE05462868F2
:1093A000008F0B9007E001200C904FF0020902E0C3
:1093B00013B0BDE8F08F00BF002489E11E98604320
:1093C0000E9901EB20201C901F9860430D9901EB32
:1093D00020201D901C9805121D980612002D07DBF9
:1093E0001098854204DA002E02DB1198864203DBD6
:1093F000002008F8040069E11C98C0B20A901D988A
:1094000000F0FF0A0A98802807DA4FF0FF3B0A981D
:10941000C0F17F0040000A9005E04FF0010B0A9870
:10942000803840000A90BAF1800F07DA4FF0FF3021
:109430000990CAF17F004FEA400A05E00120099037
:10944000AAF180004FEA400A0F98089006FB07F047
:1094500000FB09F005FB090108980844089005EB9A
:109460000B0000287EDB05EB0B011098401E8142AB
:1094700078DC099830440028F4DB099831181198F9
:10948000401E8142F4DC0898079008980BFB090005
:109490000690099800FB07F1089801FB0900059068
:1094A0000C9800287FD0239B052B06D1079B98782A
:1094B000059B9978069B9A783BE0239B142B18D147
:1094C000DDF844C007FB0CFCDDF83CE00EEB4C0380
:1094D00006FB073C1CF8050006FB073CAC441CF8E7
:1094E0000B20DDF824C0B4440CFB073C1CF805102D
:1094F0001FE0239B062B19D1079B1B88BDF82CC0AE
:1095000063450BD0059B1B88BDF82CC0634505D077
:10951000069B1B88BDF82CC0634503D1002308F8C7
:109520000430D3E0FF20FF21FF2202E0FF20FF21D3
:10953000FF22814207D001FB0AF3CAF5807C00FBC1
:109540000C33C3F30721824209D00A9B5343DDF851
:1095500028C0CCF5807C00FB0C33C3F307228B18AA
:109560005B1000E059E008F8043018F8043003B943
:10957000ACE0079B93F800C05B780CEB03239BB235
:109580000493059B93F800C05B780CEB03239BB21C
:109590000393069B93F800C05B780CEB03239BB20C
:1095A00002930CE0FFE70798008804900698008873
:1095B0000290059800880390FF2008F80400BDF889
:1095C0001000BDF80C1088420CD1BDF81000BDF899
:1095D0000810884206D1219800EB4400BDF8101015
:1095E000018019E00AF0FF02DDE903010AF03EFE06
:1095F00003900A98C2B2049902980AF037FE0290CA
:109600007F22DDE902010AF031FE0190219800EB92
:109610004400BDF80410018057E008990A784978A1
:1096200002EB01218AB2219921F8142023990529FE
:1096300004D0062905D0142919D10EE0089988789C
:1096400017E0219931F81410BDF82C20914201D176
:10965000002100E0FF2108460BE0119A07FB02F110
:109660000F9A02EB410106FB0711485D01E0FF2064
:1096700000BF00BF15B9BBF1000F06DB1099491EF2
:10968000A9420BD1BBF1000F08DD0A99C1F1FF011E
:109690004143C1F3072108F8041015E016B90999F0
:1096A000002906DB1199491EB1420AD10999002906
:1096B00007DDCAF1FF014143C1F3072108F8041097
:1096C00002E0002108F8041000BF00BF601C04B2D3
:1096D00020988442FFF672AE00BF69E62DE9F84F8C
:1096E00004468C4690469946109FDDE90A56AA46E4
:1096F0000096002032E00C9941430AEB21250D9998
:109700004143DDF800B00BEB21262A123312002A68
:1097100005DB624503DA002B01DB434502DB002158
:10972000395419E0214603FB09FB0BEB4B0B02EB11
:10973000420EF344594491F800B091F801E00BEB6C
:109740000E2B1FFA8BFEDDF83CB02BF810E091F8E1
:1097500002B007F800B000BF411C08B20E99884261
:10976000C9DBBDE8F88F000010B50C480088A0B137
:109770000B4800680B490860094801680AA002F01C
:10978000C7F8012007498871012200210A481DF00D
:10979000CFF9012108481DF030FA10BD0A01002060
:1097A00010010020640000206F70656E2069732036
:1097B00025640D0A00000000001C004010B54FF4A5
:1097C00000710248FBF754FD012010BD3C0E002043
:1097D00000200149087070478301002010B5012165
:1097E000224808F0D5FA0A201EF0EAFB00231A46A8
:1097F0004FF416511E481DF005FF1EA01DF0F8FD88
:109800000A201EF0DDFB00231A464FF4E131184810
:109810001DF0F8FE05201EF0D3FB19A01DF0E8FD99
:1098200005201EF0CDFB16A01DF0E2FD05201EF068
:10983000C7FB15A01DF0DCFD0A201EF0C1FB17A020
:109840001DF0D6FD0A201EF0BBFB17A01DF0D0FDB9
:1098500018A0FCF731FE0A201EF0B2FB01210348DC
:1098600008F098FAFFF7AAFF10BD000000140140AD
:109870000038014041542B42415544380D0A000044
:1098800041540D0A0000000041542B4E414D454605
:1098900043506F7765720D0A0000000041542B5051
:1098A0004F5752380D0A000041542B52455345542E
:1098B0000D0A000041542B534C454550320D0A000F
:1098C000F0B52DED028B83B006460F4606B11FB9E9
:1098D00003B0BDEC028BF0BD4FF400715D48FBF7A7
:1098E000C7FC0024002591E005EB850056F8200018
:1098F00028B105EB850006EB8000806800B983E0A5
:1099000005EB850256F82230C4F50071514A101952
:1099100051A2FCF7E1FD044405EB850006EB800055
:10992000007930B1012813D0022820D003284AD171
:109930003BE005EB850206EB820292681378C4F5E2
:109940000071444A101945A2FCF7C6FD04443BE0EF
:1099500005EB850206EB82029268C4F5007113687C
:109960003C4A10193EA2FCF7B7FD04442CE005EB7D
:10997000850006EB8000806890ED000A10EE101A5A
:109980000846FBF7F1FE41EC180B8DED008B05EB63
:10999000850206EB8202C4F50071D3682D4A1019C6
:1099A00030A2FCF799FD04440EE005EB850206EBBE
:1099B0008202C4F500719368264A10192BA2FCF7A5
:1099C0008BFD044400E000BF00BF05EB850006EB03
:1099D0008000006960B105EB850206EB8202C4F5E8
:1099E000007113691B4A101920A2FCF775FD04448D
:1099F000781EA84207DDC4F50071164A10191CA292
:109A0000FCF76AFD044400BF681C85B2BD42FFF646
:109A10006BAFC4F500710F4A101916A2FCF75CFD7C
:109A2000044400BF144800780028FBD1A3B2094ABF
:109A3000124913481EF0FCFB0121114802F048F9BD
:109A400001210E48001F1DF08EFD01200A490870FB
:109A500000BF3DE73C0E002025733D00256300005C
:109A600025640000252E2A660000000025730000F2
:109A70002C0000000D0A0000830100200438014082
:109A80004400024070B504460D4600BF204600F079
:109A90003BF818B100BF00BF00BFFEE700BF28467B
:109AA00000F050F9001D616808446060204600F035
:109AB0003AF8204670BD70B505460C46284600F0C1
:109AC00041F904F11001884201D3012070BD00204A
:109AD000FCE70146A1F1080070477CB505460C463D
:109AE000204600F02FF906466A4601A918F000FE4C
:109AF00021462846DDE9003208F048FF7CBD0146DA
:109B0000087900F00100704710B50446204600F0C7
:109B100019F908B9012010BD0020FCE701460879B9
:109B200000F00200704770B50446204600F097F838
:109B300005462C60284670BD7CB506460C460020C4
:109B40000190009000256CB16A4601A9204618F0EA
:109B5000ECFD01980A2805DA6A4601A930461AF098
:109B600023FC054685B100BF284600F0EBF8A04273
:109B700003D200BF00BF00BFFEE700BF294630464A
:109B8000DDE9003219F03EFF28467CBD70B5044681
:109B90002046FFF7C8FF0546284600F0BEF82046DD
:109BA00000F0B6F870BD70B50446204600F057F8D6
:109BB0000546284600F0B6F8204600F0BEF870BD15
:109BC00070B506460D46284600F049F8044600BF29
:109BD0001CB900BF00BF00BFFEE700BF2046FFF773
:109BE0008EFF90B100BF2846FFF78EFF18B100BF6F
:109BF00000BF00BFFEE700BF2146304600F076F808
:109C000021462846FFF73EFF0546284670BD70B541
:109C100006460D462846FFF781FFF0B1284600F0C2
:109C200057F8044600BF1CB900BF00BF00BFFEE7E5
:109C300000BF00BF2046FFF762FF18B900BF00BF9A
:109C400000BFFEE700BF2146304600F04FF829462E
:109C50002046FFF717FF054600BF284670BD2DE9D7
:109C6000F0410446204600F06DF8061F204600F043
:109C7000B8F80746314618F002FF054600BF2046F7
:109C8000FFF742FF18B100BF00BF00BFFEE700BFF3
:109C90002846BDE8F0812DE9F04106460C46154600
:109CA000002794B100BF1DB900BF00BF00BFFEE791
:109CB00000BF2A462146304600F097F82046FFF7BD
:109CC00072FF204600F08DF807463846BDE8F08167
:109CD00010B5044600BF2046FFF720FF18B900BFAB
:109CE00000BF00BFFEE700BF206810BD7CB5054681
:109CF0000C46204600F026F806466A4601A918F0F0
:109D0000F7FC21462846DDE9003219F07BFE7CBDD8
:109D1000416841F0010141607047416841F0020132
:109D200041607047416821F002014160704742681C
:109D300002F003030B4343607047416821F00101C7
:109D4000416070470146486820F0030070472DE9E4
:109D5000F04706460C46304600F043F88046211F87
:109D600018F08DFE07463046FFF7ECFF211D451A1F
:109D700000BF384600F035F88146384600F031F82B
:109D800080460421FFF71AF9814503D000BF00BFC8
:109D900000BFFEE700BF00BF3046FFF7D3FF291921
:109DA000091D884203D000BF00BF00BFFEE700BF0F
:109DB00029463846FFF7BBFF00BF3846FFF7C2FF12
:109DC0000C2803D200BF00BF00BFFEE700BF214642
:109DD0003046FFF7ACFF3846FFF7D8FE3846BDE8FF
:109DE000F087014601F1080070472DE9F041064671
:109DF0000C46154600BF2046FFF781FE18B900BF8C
:109E000000BF00BFFEE700BF29462046FFF753FE14
:109E100078B129462046FFF79AFF07462046FFF70C
:109E200082FE3846FFF779FF39463046FFF755FE88
:109E300000BFBDE8F0812DE9F04106460C4615460D
:109E400000BF2046FFF75BFE18B100BF00BF00BF98
:109E5000FEE700BF29462046FFF72DFE88B12946C0
:109E60002046FFF774FF07463846FFF75BFF394689
:109E70003046FFF7A5FE074639463046FFF72DFE70
:109E800000BFBDE8F0810000024A0244C2F8001C95
:109E900070470000006000402DE9F04F89B0044693
:109EA0000D460021204611F0B6FE30B91C2128468F
:109EB00010F030FE09B0BDE8F08F2946204600F0D2
:109EC0000BFB2946204600F07DF80021204612F0C9
:109ED00067FF08900021204612F0AAFF079000219A
:109EE000204612F017FE012800D100E00020814634
:109EF0000021204613F0C7F807460021204612F043
:109F00009DFE064642F2D170874205D1608CC0F3B7
:109F1000C02008B9012000E000208246204611F050
:109F2000F7FE069000BF4FF0000824480288414623
:109F3000204612F0A1FF03900398C0B200BF8346F1
:109F4000AA6829692868CDE90209CDE900125A46B4
:109F50005146089B069808F02BF8288342F2D170EE
:109F6000864205D1608CC0F3802008B9012000E052
:109F700000200590204611F0ACFE049000BF4FF089
:109F800000080F4802884146204612F075FF0390F2
:109F90000398C0B200BF83460023EA686968686915
:109FA000CDE90213CDE900025A46079BDDE9040121
:109FB00007F0FEFF688300BF7CE70000700200200E
:109FC000740200202DE9F34F87B00C46079807F084
:109FD0002FFA8046079811F09BFE0690404601F04C
:109FE0007AFA20612169480010F02AFB206021697B
:109FF000480010F025FBA060002548E0584802907A
:10A0000038F9150041F69A7188423FD1002001903D
:10A0100029E00199079811F0FEFD00905149009840
:10A0200013F072F900B11BE0009807F01FFA8246A6
:10A03000BAF1010F00D013E0009807F007FA834649
:10A04000AB4500D00CE0009813F04AF90299884221
:10A0500001DA029802E0009813F042F9029000BF82
:10A060000198401C0190079811F0F3FD0199884276
:10A07000CFD80298002804DB0298A16821F81500C7
:10A0800003E00021A06820F8151000BF6D1C2069B6
:10A09000A842B3D80026B14600251BE038F91500C8
:10A0A00041F69B71884202DB411A0E4411E041F6F1
:10A0B0009A71884206D1A16831F8151049440FFA07
:10A0C00081F906E0A16821F8150009EB00010FFAFB
:10A0D00081F96D1C2069A842E0D80021079812F090
:10A0E0005FFE05902169491EDDE9050200FB112094
:10A0F00000B206900698A0EB090007B2002F00DA24
:10A1000000274FF0FF30049000200390002513E05B
:10A1100038F9150041F69B7188420CDB421A11B2E6
:10A1200007FB01F2B2FBF6F212B2A36823F8152086
:10A130000495039100BF6D1C2069A842E8D80498DB
:10A1400000280ADB0398301A7843B0FBF6F0381A7F
:10A1500001B2A268049822F8101009B0BDE8F08F8F
:10A1600001E0FFFF010006002DE9FC5F054600222B
:10A170001146284614F0FAFB0021284612F00EFD85
:10A1800081460021284612F05FFE484407B20021B4
:10A19000284612F0E1FD48440FFA80FA284612F0F2
:10A1A0004DFC384450440FFA80FB3B4E284611F0DA
:10A1B00050FD01904FF000085CE0A868006850F87E
:10A1C00028403649204613F09FF800B150E0204661
:10A1D00013F046FB002839D10021204612F05FFC25
:10A1E0000090009830B1012807D0022804D003283D
:10A1F00015D100E000BF00BF00BFB4F91A10B5F9D7
:10A200001600081A401CB04201DA304605E0B4F9E5
:10A210001A10B5F91600081A401C06B214E0002105
:10A22000204612F054FF70B904F1140009F029FC23
:10A230003844B04201DA304604E004F1140009F079
:10A2400020FC384406B200BF00BF10E0B4F91A1079
:10A25000B5F91600081A401CB04201DA304605E094
:10A26000B4F91A10B5F91600081A401C06B200BF5E
:10A2700008F10108019880459FD30748864209D01C
:10A2800006EB0A0006B25E4502DD3046BDE8FC9FE3
:10A290005846FBE75846F9E701E0FFFF01000400DC
:10A2A0002DE9FC5F054600221146284614F042FBCA
:10A2B0000021284612F072FC82460021284612F046
:10A2C00093FD50440FFA80F80021284612F074FDE7
:10A2D00050440FFA80F9284612F0C0FB484440442D
:10A2E00000B20190724C284611F0B3FC8346002165
:10A2F000284612F0EBFB012866D100265BE0A86837
:10A30000006850F826706B49384612F0FDFF00B126
:10A3100050E0384613F0A4FA002839D1002138461D
:10A3200012F0BDFB0090009830B1032805D006283C
:10A3300004D0082815D102E000BF00BF00BFB5F966
:10A340001800B7F91410401A401CA04201DA204648
:10A3500005E0B5F91800B7F91410401A401C04B212
:10A3600014E00021384612F0A6FE70B907F114007F
:10A3700009F0D7FB4044A04201DA204604E007F18F
:10A38000140009F0CEFB404404B200BF00BF10E04F
:10A39000B5F91800B7F91410401A401CA04201DAB0
:10A3A000204605E0B5F91800B7F91410401A401C12
:10A3B00004B200BF761C5E45A1D33D48844269D0FB
:10A3C00004EB090004B265E000265BE0A8680068C1
:10A3D00050F826703749384612F096FF00B150E029
:10A3E000384613F03DFA80BB0021384612F057FB87
:10A3F0000090009830B1012805D0042804D0072827
:10A4000015D102E000BF00BF00BFB7F91800B5F9D1
:10A410001410401A401CA04201DA204605E0B7F9AA
:10A420001800B5F91410401A401C04B215E00021C0
:10A43000384612F04CFE78B907F1140009F071FBB0
:10A440004844A04202DA204605E008E007F1140083
:10A4500009F067FB484404B200BF00BF10E0B7F941
:10A460001800B5F91410401A401CA04201DA204629
:10A4700005E0B7F91800B5F91410401A401C04B2F1
:10A4800000BF761C5E45A1D30948844202D004EB8C
:10A49000080004B20648844202D10198BDE8FC9F3E
:10A4A0000198844201DD2046F8E70198F6E70000B4
:10A4B00001E0FFFF0100040010B50446206810F021
:10A4C0003BF9606810F038F9A06810F035F9E068E1
:10A4D00010F032F910BD00002DE9F34F87B00C46A3
:10A4E000079807F0C5FB8046404600F0F4FF606126
:10A4F0006169480010F0A4F860606169480010F0DC
:10A500009FF8E060002547E05948029038F91500AF
:10A5100041F69A7188423ED14FF0000A29E0514637
:10A52000079811F078FB01905249019812F0ECFE67
:10A5300000B11CE0019807F0B9FB8346BBF1010FA5
:10A5400000D014E0019807F0A1FB00900098A84209
:10A5500000D00CE0019811F051FC0299884201DA18
:10A56000029802E0019811F049FC029000BF0AF144
:10A57000010A079811F06DFB5045D0D802980028C9
:10A5800004DB0298E16821F8150003E00020E1688F
:10A5900021F8150000BF6D1C6069A842B4D80026E0
:10A5A000B14600251BE038F9150041F69B71884241
:10A5B00002DB411A0E4411E041F69A71884206D13D
:10A5C000E16831F8151049440FFA81F906E0E168B5
:10A5D00021F8150009EB00010FFA81F96D1C606983
:10A5E000A842E0D80021079812F022FC06900798B4
:10A5F00011F06FFB01466269521E069800FB1210B3
:10A6000000B205900598A0EB090007B2002F00DA10
:10A6100000274FF0FF30049000200390002513E046
:10A6200038F9150041F69B7188420CDB421A11B2D1
:10A6300007FB01F2B2FBF6F212B2E36823F8152031
:10A640000495039100BF6D1C6069A842E8D8049886
:10A6500000280ADB0398301A7843B0FBF6F0381A6A
:10A6600001B2E268049822F8101009B0BDE8F08F3A
:10A6700001E0FFFF0100060038B5044600256E2208
:10A680002946204612F0F8FB0090009800B208B16D
:10A69000022038BD00256D222946204612F0ECFB31
:10A6A0000090009800B2B0F5807F01D00220F0E762
:10A6B000002561222946204612F0DEFB009000981A
:10A6C000C0B2FF2801D00120E3E700256822294617
:10A6D000204612F0D1FB00900098C0B208B10120D2
:10A6E000D7E70020D5E77CB504460D4616462888F6
:10A6F0002189084400B2ADF80000688861890844E7
:10A7000000B2ADF80200A8882189084400B2ADF873
:10A710000400E8886189084400B2ADF806003246BA
:10A7200069462046636998477CBD00002DE9FF4FCC
:10A730008FB00F46209DF87800F0010008B1F9486D
:10A7400000E0F9480E90F87800F0010008B1F748F1
:10A7500000E0F7480D90F87800F0010008B9F348E0
:10A7600000E0F3480C9001200B90BEE000210B911B
:10A7700000206988B5F804C0A1EB0C010AB20026DC
:10A780001AE006EB860CE96801EB8C01097C01F00C
:10A79000010141B906EB860CE96801EB8C0189895E
:10A7A000014408B207E006EB860CE96801EB8C0176
:10A7B0000989511A0AB2761C2969B142E1D80026EA
:10A7C0008EE006EB860CE96801EB8C01097C01F058
:10A7D000010100297DD100BF18B900BF00BF00BF33
:10A7E000FEE700BF92FBF0F80FFA88F306EB86094C
:10A7F000D5F80C8008EB8908B8F80C8008FB03F842
:10A800000FFA88F106EB8609D5F80C8008EB890869
:10A81000B8F9049006EB860AD5F80C8008EB8A0894
:10A82000B8F90680884501DD884607E006EB860A10
:10A83000D5F80C8008EB8A08B8F90680C14508DD18
:10A8400006EB8609D5F80C8008EB8908B8F9048076
:10A8500013E006EB8609D5F80C8008EB8908B8F9F7
:10A860000680884501DD884607E006EB8609D5F8B5
:10A870000C8008EB8908B8F90680C4468C450BD0DB
:10A880004FF0010806EB860AD5F80C9009EB8A090F
:10A89000C9F81080CDF82C8006EB8609D5F80C801D
:10A8A00008EB8908A8F808C006EB8609D5F80C80E3
:10A8B00008EB8908B8F80C80A0EB08080FFA88F0BC
:10A8C00006EB8609D5F80C8008EB8908B8F80880F3
:10A8D00000E004E0A2EB08080FFA88F200BF761C43
:10A8E0002969B1423FF66DAF00BF0B9800287FF495
:10A8F0003DAF00210F9812F001F9012800D100E0CE
:10A9000000200A9000200990089008A809A9CDE924
:10A91000001029890BB2B5F9022038781E9918F079
:10A92000ADF9F87800F0010048B10A9838B10F98F5
:10A9300011F0EEF9BDF82410084400B20990119905
:10A940000F9811F068F904468FE17A49204612F019
:10A95000DBFC40B1F878C0F3800111AA0F9807F032
:10A960004DF8044681E10021204612F03FF907909E
:10A970000798002860D000200390002610E006EB26
:10A980008601E86850F82100A04208D106EB860055
:10A99000E96801EB8000B0F90800039003E0761C41
:10A9A0002869B042EBD800BFF87800F0010050B140
:10A9B000608C20F4006000F500606084608C20F4FE
:10A9C0008060608409E0608C20F4806000F5806025
:10A9D0006084608C20F40060608404F114000D99A0
:10A9E00088470399884226D0204612F0C1FE00BF56
:10A9F000A08AADF80400E08AADF80600208BADF81F
:10AA00000800608BADF80A0000BF04F114000E9A34
:10AA10000399904701AA292120460DF09DF8204670
:10AA200011F03CFA2246222100900DF095F82046C4
:10AA300012F09EFE00BF07E0608C20F4006060848E
:10AA4000608C20F480606084002006907878012873
:10AA500012D0022819D104F114000C998847B5F9D5
:10AA60000010491C21F00101081A039000EBD0707E
:10AA7000401000B2069009E004F114000C998847D8
:10AA80002988081A00B2069000E000BF00BFF878DD
:10AA900000F0010050B10A9840B104F114000D9982
:10AAA0008847BDF82410081A00B2099000200390CE
:10AAB0006B222046039912F0DFF9029002980FFAF8
:10AAC00080F800BF002003906C222046039912F00A
:10AAD000D3F9029002980FFA80F900BF204612F0D5
